:100000000C9434000C9449000C9449000C94490061
:100010000C9449000C9449000C9449000C9449003C
:100020000C9449000C9449000C9449000C9449002C
:100030000C9449000C9449000C9449000C9449001C
:100040000C9449000C9449000C9449000C9449000C
:100050000C9449000C9449000C9449000C944900FC
:100060000C9449000C94490011241FBECFEFD8E036
:10007000DEBFCDBF11E0A0E0B1E0E0E2F6E002C0FB
:1000800005900D92A631B107D9F70E946C020C942D
:100090000E030C94000087B1837C87B9599A589855
:1000A0005A9A000086B1869586955A9800005A9A09
:1000B00000005A98000083FDF3CF5998589A87B1F1
:1000C0008C6387B908955A9A80E18A95F1F700C048
:1000D0005A9808951F93CF93DF931F92CDB7DEB741
:1000E000182F69830E944B00698161110BC05898D9
:1000F000103811F0113061F481E080930101809398
:10010000000106C0589A809101018F5F8093010120
:10011000599888B1912F907F96959695982B98B97C
:100120000E94630088B1837C88B928B130E1139FB5
:10013000C001112499279595879595958795282B2A
:1001400028B90E94630088B1837C88B90F90DF9141
:10015000CF911F910895CF93DF9300D0CDB7DEB735
:100160006A8389830E944B0089819FEF980F6A817F
:100170009E3F08F081E080930101609300016230AE
:1001800041F028F0643049F030F06F3F39F481508D
:1001900005C0815C03C0815F01C0815B60E0806855
:1001A0000F900F90DF91CF910C946A000F931F93E3
:1001B000CF93DF93EC0101E011E088811816A4F4DD
:1001C000113160F0013029F462E081E00E94AB005F
:1001D00002E08881803209F4219611E061E0899182
:1001E0000E946A001F5FE9CFDF91CF911F910F91AD
:1001F0000895DF92EF92FF920F931F93CF93DF93B7
:10020000CDB7DEB727970FB6F894DEBF0FBECDBFD0
:100210009C01F62EFE01319687E0DF011D928A9542
:10022000E9F7C90140E00AE010E0009731F04F5FC4
:10023000B8010E94E602CB01F8CF6F2D641B67FD69
:1002400060E037FF07C03195219531094F5FDD240C
:10025000D39401C0D12C460F0AE010E0442369F08A
:100260007E01E40EF11CC901B8010E94E602805D26
:10027000D7018C939B014150F1CFDD2011F08DE22D
:100280008983CF010E94D60027960FB6F894DEBF6F
:100290000FBECDBFDF91CF911F910F91FF90EF90D7
:1002A000DF900895843620F015BC14BC5D9A1AC006
:1002B000811106C015BC14BC5D9860E088E014C0D4
:1002C000559A94B5936294BD95B59C6095BD98E0A0
:1002D00097BD97B5989FC001112464E670E00E9415
:1002E000E60268BD60E08CE00C946A00CF93DF9377
:1002F0001F92CDB7DEB7E7EAF1E63197F1F700C01C
:1003000000008093020197B19C6397B998B1937CE8
:1003100098B9509A519A9AB197609AB95A9859983F
:10032000589898B19C6098B989830E94630098B1ED
:10033000937C98B9E3ECF9E03197F1F700C0000045
:1003400098B19C6098B90E94630098B1937C98B969
:10035000E9EFF0E03197F1F700C0000098B19C6040
:1003600098B90E94630098B1937C98B9E9EFF0E0E6
:100370003197F1F700C00000439A0E94630098B1E2
:10038000937C98B9E9EFF0E03197F1F700C00000F5
:10039000439A0E94630098B1937C98B9E9EFF0E02A
:1003A0003197F1F700C00000459A0E94630098B1B0
:1003B000937C98B9E9EFF0E03197F1F700C00000C5
:1003C000429A0E94630098B1937C98B9E1EEF4E000
:1003D0003197F1F700C0000098B1986198B90E9478
:1003E000630098B1937C98B9E9EFF0E03197F1F7A9
:1003F00000C0000098B1906398B9E9EFF0E0319740
:10040000F1F700C0000098B1937C98B90E94630096
:10041000439A0E94630098B1937C98B9E3ECF9E0A9
:100420003197F1F700C0000060E089818C600E9484
:100430006A0084E60E94520160E081E00E946A0046
:1004400060E080E80F90DF91CF910C946A008FEF0D
:1004500084B915B8089520E830E094E048E050E110
:1004600060E28130B9F465B9E0E7F2E03197F1F785
:1004700000C0000055B9E0E7F2E03197F1F700C0A5
:10048000000045B9E0E7F2E03197F1F700C0000065
:1004900095B916C095B9E0E7F2E03197F1F700C0E1
:1004A000000045B9E0E7F2E03197F1F700C0000045
:1004B00055B9E0E7F2E03197F1F700C0000065B907
:1004C000E0E7F2E03197F1F700C000002150310978
:1004D0002115310531F608950E94270282E00E941D
:1004E00076011DE2DBE0CBE3D93108F0D8511111E0
:1004F00002C0CC2319F09BE08CE302C09CE080E0BA
:10050000082F0C1BF92EFD1A61E081E00E94AB0060
:1005100083E091E00E94D60062E08D2F90E00E947F
:10052000F9008DE091E00E94D60062E08C2F90E00F
:100530000E94F90062E082E00E94AB008FE091E04F
:100540000E94D60062E08F2D90E00E94F9008DE0BD
:1005500091E00E94D60062E0802F90E00E94F900B6
:1005600091E0C11101C090E081E0111101C080E073
:10057000892B11F4DC30A9F01F5F2FE38DE093E0AD
:10058000215080409040E1F700C000001C3308F487
:10059000ABCFCF5F1C53CC3309F0A6CFDF5FC0E0F9
:1005A000A3CF81E00E942B0215B82FE38DE093E0EA
:1005B000215080409040E1F700C0000080E00E94A0
:1005C0002B0215B8DCE0C0E014E095CF97FB072EB6
:1005D00016F4009407D077FD09D00E94FA0207FCB8
:1005E00005D03EF4909581959F4F08957095619543
:1005F0007F4F0895AA1BBB1B51E107C0AA1FBB1F59
:10060000A617B70710F0A61BB70B881F991F5A959E
:10061000A9F780959095BC01CD010895F894FFCF7E
:1006200001010C43757272656E743A20003A004CF9
:060630006566743A20002B
:00000001FF
